{"abi":[{"type":"constructor","inputs":[],"stateMutability":"nonpayable"},{"type":"function","name":"addDistributors","inputs":[{"name":"newDistributors","type":"address[]","internalType":"address[]"}],"outputs":[],"stateMutability":"nonpayable"},{"type":"function","name":"addUndelegations","inputs":[{"name":"newUndelegations","type":"uint256[]","internalType":"uint256[]"},{"name":"shares","type":"uint256[]","internalType":"uint256[]"}],"outputs":[],"stateMutability":"nonpayable"},{"type":"function","name":"claim","inputs":[{"name":"receiver","type":"address","internalType":"address"},{"name":"feeInBasisPoints","type":"uint256","internalType":"uint256"},{"name":"feeTreasury","type":"address","internalType":"address"}],"outputs":[{"name":"","type":"uint256","internalType":"uint256"}],"stateMutability":"nonpayable"},{"type":"function","name":"initialize","inputs":[{"name":"staking","type":"address","internalType":"contract IFortaStaking"},{"name":"token","type":"address","internalType":"contract IERC20"}],"outputs":[],"stateMutability":"nonpayable"},{"type":"function","name":"onERC1155BatchReceived","inputs":[{"name":"","type":"address","internalType":"address"},{"name":"","type":"address","internalType":"address"},{"name":"","type":"uint256[]","internalType":"uint256[]"},{"name":"","type":"uint256[]","internalType":"uint256[]"},{"name":"","type":"bytes","internalType":"bytes"}],"outputs":[{"name":"","type":"bytes4","internalType":"bytes4"}],"stateMutability":"nonpayable"},{"type":"function","name":"onERC1155Received","inputs":[{"name":"","type":"address","internalType":"address"},{"name":"","type":"address","internalType":"address"},{"name":"","type":"uint256","internalType":"uint256"},{"name":"","type":"uint256","internalType":"uint256"},{"name":"","type":"bytes","internalType":"bytes"}],"outputs":[{"name":"","type":"bytes4","internalType":"bytes4"}],"stateMutability":"nonpayable"},{"type":"function","name":"owner","inputs":[],"outputs":[{"name":"","type":"address","internalType":"address"}],"stateMutability":"view"},{"type":"function","name":"renounceOwnership","inputs":[],"outputs":[],"stateMutability":"nonpayable"},{"type":"function","name":"supportsInterface","inputs":[{"name":"interfaceId","type":"bytes4","internalType":"bytes4"}],"outputs":[{"name":"","type":"bool","internalType":"bool"}],"stateMutability":"view"},{"type":"function","name":"transferOwnership","inputs":[{"name":"newOwner","type":"address","internalType":"address"}],"outputs":[],"stateMutability":"nonpayable"},{"type":"event","name":"Initialized","inputs":[{"name":"version","type":"uint64","indexed":false,"internalType":"uint64"}],"anonymous":false},{"type":"event","name":"OwnershipTransferred","inputs":[{"name":"previousOwner","type":"address","indexed":true,"internalType":"address"},{"name":"newOwner","type":"address","indexed":true,"internalType":"address"}],"anonymous":false},{"type":"error","name":"AddressEmptyCode","inputs":[{"name":"target","type":"address","internalType":"address"}]},{"type":"error","name":"AddressInsufficientBalance","inputs":[{"name":"account","type":"address","internalType":"address"}]},{"type":"error","name":"FailedInnerCall","inputs":[]},{"type":"error","name":"InvalidInitialization","inputs":[]},{"type":"error","name":"NotInitializing","inputs":[]},{"type":"error","name":"OwnableInvalidOwner","inputs":[{"name":"owner","type":"address","internalType":"address"}]},{"type":"error","name":"OwnableUnauthorizedAccount","inputs":[{"name":"account","type":"address","internalType":"address"}]},{"type":"error","name":"SafeERC20FailedOperation","inputs":[{"name":"token","type":"address","internalType":"address"}]}],"bytecode":{"object":"0x608060405234801561001057600080fd5b5061001961001e565b6100d0565b7ff0c57e16840df040f15088dc2f81fe391c3923bec73e23a9662efc9c229c6a00805468010000000000000000900460ff161561006e5760405163f92ee8a960e01b815260040160405180910390fd5b80546001600160401b03908116146100cd5780546001600160401b0319166001600160401b0390811782556040519081527fc7f505b2f371ae2175ee4913f4499e1f2633a7b5936321eed1cdaeb6115181d29060200160405180910390a15b50565b6113fb806100df6000396000f3fe608060405234801561001057600080fd5b506004361061009e5760003560e01c80639e96a260116100665780639e96a26014610135578063ada65a1014610156578063bc197c8114610169578063f23a6e61146101a1578063f2fde38b146101c057600080fd5b806301ffc9a7146100a357806348524c41146100cb578063485cc955146100e0578063715018a6146100f35780638da5cb5b146100fb575b600080fd5b6100b66100b1366004610e64565b6101d3565b60405190151581526020015b60405180910390f35b6100de6100d9366004610f68565b61020a565b005b6100de6100ee366004610fe1565b61035e565b6100de61049f565b7f9016d09d72d40fdae2fd8ceac6b6234c7706214fd39c1cd1e609a0528c199300546040516001600160a01b0390911681526020016100c2565b61014861014336600461101a565b6104b3565b6040519081526020016100c2565b6100de61016436600461105c565b610963565b610188610177366004611166565b63bc197c8160e01b95945050505050565b6040516001600160e01b031990911681526020016100c2565b6101886101af366004611214565b63f23a6e6160e01b95945050505050565b6100de6101ce36600461127d565b610a29565b60006001600160e01b03198216630271189760e51b148061020457506301ffc9a760e01b6001600160e01b03198316145b92915050565b610212610a6c565b60005b82518110156103595760008382815181106102325761023261129a565b60200260200101519050600260008281526020019081526020016000205460000361028a57600080546001810182559080527f290decd9548b62a8d60345a988386fc84ba6bc95484008f6362f93160ef3e563018190555b60045483516001600160a01b039091169063edea0bac9060039084908790879081106102b8576102b861129a565b60209081029190910101516040516001600160e01b031960e086901b16815260ff9093166004840152602483019190915260448201526064016020604051808303816000875af1158015610310573d6000803e3d6000fd5b505050506040513d601f19601f8201168201806040525081019061033491906112b0565b60009182526002602052604090912067ffffffffffffffff9091169055600101610215565b505050565b7ff0c57e16840df040f15088dc2f81fe391c3923bec73e23a9662efc9c229c6a008054600160401b810460ff16159067ffffffffffffffff166000811580156103a45750825b905060008267ffffffffffffffff1660011480156103c15750303b155b9050811580156103cf575080155b156103ed5760405163f92ee8a960e01b815260040160405180910390fd5b845467ffffffffffffffff19166001178555831561041757845460ff60401b1916600160401b1785555b61042033610ac7565b600480546001600160a01b03808a166001600160a01b0319928316179092556005805492891692909116919091179055831561049657845460ff60401b19168555604051600181527fc7f505b2f371ae2175ee4913f4499e1f2633a7b5936321eed1cdaeb6115181d29060200160405180910390a15b50505050505050565b6104a7610a6c565b6104b16000610ad8565b565b60006104bd610a6c565b6000805b6000548110156106a45760008082815481106104df576104df61129a565b906000526020600020015490504260026000838152602001908152602001600020541080156105805750600480546040516375e130ad60e01b8152600392810192909252602482018390526001600160a01b0316906375e130ad90604401602060405180830381865afa15801561055a573d6000803e3d6000fd5b505050506040513d601f19601f8201168201806040525081019061057e91906112da565b155b156106925760048054604051630fd2264560e21b8152600392810192909252602482018390526001600160a01b031690633f489914906044016020604051808303816000875af11580156105d8573d6000803e3d6000fd5b505050506040513d601f19601f820116820180604052508101906105fc91906112fc565b610606908461132b565b600080549194509061061a9060019061133e565b8154811061062a5761062a61129a565b9060005260206000200154600083815481106106485761064861129a565b600091825260208083209091019290925582815260029091526040812081905580548061067757610677611351565b6001900381819060005260206000200160009055905561069e565b61069b82611367565b91505b506104c1565b5060005b60015481101561091f576000600182815481106106c7576106c761129a565b60009182526020822001546005546040516370a0823160e01b81523060048201526001600160a01b0392831694509116906370a0823190602401602060405180830381865afa15801561071e573d6000803e3d6000fd5b505050506040513d601f19601f8201168201806040525081019061074291906112fc565b90506000826001600160a01b0316634e71d92d6040518163ffffffff1660e01b81526004016020604051808303816000875af1158015610786573d6000803e3d6000fd5b505050506040513d601f19601f820116820180604052508101906107aa91906112da565b9050801561090b576005546040516370a0823160e01b81523060048201526000916001600160a01b0316906370a0823190602401602060405180830381865afa1580156107fb573d6000803e3d6000fd5b505050506040513d601f19601f8201168201806040525081019061081f91906112fc565b905061082b838261133e565b610835908761132b565b6001600160a01b0385166000908152600360205260409020805460ff19169055600180549197509061086890829061133e565b815481106108785761087861129a565b600091825260209091200154600180546001600160a01b0390921691879081106108a4576108a461129a565b9060005260206000200160006101000a8154816001600160a01b0302191690836001600160a01b0316021790555060018054806108e3576108e3611351565b600082815260209020810160001990810180546001600160a01b031916905501905550610917565b61091484611367565b93505b5050506106a8565b5060055460009061093e908390879087906001600160a01b0316610b49565b600554909150610958906001600160a01b03168783610b8f565b5090505b9392505050565b61096b610a6c565b60005b8151811015610a2557600082828151811061098b5761098b61129a565b6020908102919091018101516001600160a01b0381166000908152600390925260409091205490915060ff16610a1c576001805480820182557fb10e2d527612073b26eecdfd717e6a320cf44b4afac2b0732d9fcbe2b7fa0cf60180546001600160a01b0319166001600160a01b0384169081179091556000908152600360205260409020805460ff191690911790555b5060010161096e565b5050565b610a31610a6c565b6001600160a01b038116610a6057604051631e4fbdf760e01b8152600060048201526024015b60405180910390fd5b610a6981610ad8565b50565b33610a9e7f9016d09d72d40fdae2fd8ceac6b6234c7706214fd39c1cd1e609a0528c199300546001600160a01b031690565b6001600160a01b0316146104b15760405163118cdaa760e01b8152336004820152602401610a57565b610acf610be1565b610a6981610c2a565b7f9016d09d72d40fdae2fd8ceac6b6234c7706214fd39c1cd1e609a0528c19930080546001600160a01b031981166001600160a01b03848116918217845560405192169182907f8be0079c531659141344cd1fd0a4f28419497f9722a3daafe3b4186f6b6457e090600090a3505050565b6000808415610b7b57610b5f8686612710610c32565b90508015610b7b57610b7b6001600160a01b0384168583610b8f565b610b85818761133e565b9695505050505050565b604080516001600160a01b038416602482015260448082018490528251808303909101815260649091019091526020810180516001600160e01b031663a9059cbb60e01b179052610359908490610cf4565b7ff0c57e16840df040f15088dc2f81fe391c3923bec73e23a9662efc9c229c6a0054600160401b900460ff166104b157604051631afcd79f60e31b815260040160405180910390fd5b610a31610be1565b6000838302816000198587098281108382030391505080600003610c6957838281610c5f57610c5f611380565b049250505061095c565b808411610c8757610c878415610c80576011610d57565b6012610d57565b6000848688096000868103871696879004966002600389028118808a02820302808a02820302808a02820302808a02820302808a02820302808a02909103029181900381900460010186841190950394909402919094039290920491909117919091029150509392505050565b6000610d096001600160a01b03841683610d6c565b90508051600014158015610d2e575080806020019051810190610d2c91906112da565b155b1561035957604051635274afe760e01b81526001600160a01b0384166004820152602401610a57565b634e487b7160e01b6000528060045260246000fd5b606061095c8383600084600080856001600160a01b03168486604051610d929190611396565b60006040518083038185875af1925050503d8060008114610dcf576040519150601f19603f3d011682016040523d82523d6000602084013e610dd4565b606091505b5091509150610b85868383606082610df457610def82610e3b565b61095c565b8151158015610e0b57506001600160a01b0384163b155b15610e3457604051639996b31560e01b81526001600160a01b0385166004820152602401610a57565b508061095c565b805115610e4b5780518082602001fd5b604051630a12f52160e11b815260040160405180910390fd5b600060208284031215610e7657600080fd5b81356001600160e01b03198116811461095c57600080fd5b634e487b7160e01b600052604160045260246000fd5b604051601f8201601f1916810167ffffffffffffffff81118282101715610ecd57610ecd610e8e565b604052919050565b600067ffffffffffffffff821115610eef57610eef610e8e565b5060051b60200190565b600082601f830112610f0a57600080fd5b81356020610f1f610f1a83610ed5565b610ea4565b8083825260208201915060208460051b870101935086841115610f4157600080fd5b602086015b84811015610f5d5780358352918301918301610f46565b509695505050505050565b60008060408385031215610f7b57600080fd5b823567ffffffffffffffff80821115610f9357600080fd5b610f9f86838701610ef9565b93506020850135915080821115610fb557600080fd5b50610fc285828601610ef9565b9150509250929050565b6001600160a01b0381168114610a6957600080fd5b60008060408385031215610ff457600080fd5b8235610fff81610fcc565b9150602083013561100f81610fcc565b809150509250929050565b60008060006060848603121561102f57600080fd5b833561103a81610fcc565b925060208401359150604084013561105181610fcc565b809150509250925092565b6000602080838503121561106f57600080fd5b823567ffffffffffffffff81111561108657600080fd5b8301601f8101851361109757600080fd5b80356110a5610f1a82610ed5565b81815260059190911b820183019083810190878311156110c457600080fd5b928401925b828410156110eb5783356110dc81610fcc565b825292840192908401906110c9565b979650505050505050565b600082601f83011261110757600080fd5b813567ffffffffffffffff81111561112157611121610e8e565b611134601f8201601f1916602001610ea4565b81815284602083860101111561114957600080fd5b816020850160208301376000918101602001919091529392505050565b600080600080600060a0868803121561117e57600080fd5b853561118981610fcc565b9450602086013561119981610fcc565b9350604086013567ffffffffffffffff808211156111b657600080fd5b6111c289838a01610ef9565b945060608801359150808211156111d857600080fd5b6111e489838a01610ef9565b935060808801359150808211156111fa57600080fd5b50611207888289016110f6565b9150509295509295909350565b600080600080600060a0868803121561122c57600080fd5b853561123781610fcc565b9450602086013561124781610fcc565b93506040860135925060608601359150608086013567ffffffffffffffff81111561127157600080fd5b611207888289016110f6565b60006020828403121561128f57600080fd5b813561095c81610fcc565b634e487b7160e01b600052603260045260246000fd5b6000602082840312156112c257600080fd5b815167ffffffffffffffff8116811461095c57600080fd5b6000602082840312156112ec57600080fd5b8151801515811461095c57600080fd5b60006020828403121561130e57600080fd5b5051919050565b634e487b7160e01b600052601160045260246000fd5b8082018082111561020457610204611315565b8181038181111561020457610204611315565b634e487b7160e01b600052603160045260246000fd5b60006001820161137957611379611315565b5060010190565b634e487b7160e01b600052601260045260246000fd5b6000825160005b818110156113b7576020818601810151858301520161139d565b50600092019182525091905056fea264697066735822122069c3d2ada9e0f9511069d948c2dad5d912bb870220818bb95d3ec4b447bb910864736f6c63430008170033","linkReferences":{}},"methodIdentifiers":{"addDistributors(address[])":"ada65a10","addUndelegations(uint256[],uint256[])":"48524c41","claim(address,uint256,address)":"9e96a260","initialize(address,address)":"485cc955","onERC1155BatchReceived(address,address,uint256[],uint256[],bytes)":"bc197c81","onERC1155Received(address,address,uint256,uint256,bytes)":"f23a6e61","owner()":"8da5cb5b","renounceOwnership()":"715018a6","supportsInterface(bytes4)":"01ffc9a7","transferOwnership(address)":"f2fde38b"},"storageLayout":{"storage":[{"astId":59114,"contract":"src/RedemptionReceiver.sol:RedemptionReceiver","label":"_subjects","offset":0,"slot":"0","type":"t_array(t_uint256)dyn_storage"},{"astId":59117,"contract":"src/RedemptionReceiver.sol:RedemptionReceiver","label":"_distributors","offset":0,"slot":"1","type":"t_array(t_address)dyn_storage"},{"astId":59121,"contract":"src/RedemptionReceiver.sol:RedemptionReceiver","label":"_subjectsPending","offset":0,"slot":"2","type":"t_mapping(t_uint256,t_uint256)"},{"astId":59125,"contract":"src/RedemptionReceiver.sol:RedemptionReceiver","label":"_distributorsPending","offset":0,"slot":"3","type":"t_mapping(t_address,t_bool)"},{"astId":59128,"contract":"src/RedemptionReceiver.sol:RedemptionReceiver","label":"_staking","offset":0,"slot":"4","type":"t_contract(IFortaStaking)60139"},{"astId":59131,"contract":"src/RedemptionReceiver.sol:RedemptionReceiver","label":"_token","offset":0,"slot":"5","type":"t_contract(IERC20)48889"}],"types":{"t_address":{"encoding":"inplace","label":"address","numberOfBytes":"20"},"t_array(t_address)dyn_storage":{"encoding":"dynamic_array","label":"address[]","numberOfBytes":"32","base":"t_address"},"t_array(t_uint256)dyn_storage":{"encoding":"dynamic_array","label":"uint256[]","numberOfBytes":"32","base":"t_uint256"},"t_bool":{"encoding":"inplace","label":"bool","numberOfBytes":"1"},"t_contract(IERC20)48889":{"encoding":"inplace","label":"contract IERC20","numberOfBytes":"20"},"t_contract(IFortaStaking)60139":{"encoding":"inplace","label":"contract IFortaStaking","numberOfBytes":"20"},"t_mapping(t_address,t_bool)":{"encoding":"mapping","key":"t_address","label":"mapping(address => bool)","numberOfBytes":"32","value":"t_bool"},"t_mapping(t_uint256,t_uint256)":{"encoding":"mapping","key":"t_uint256","label":"mapping(uint256 => uint256)","numberOfBytes":"32","value":"t_uint256"},"t_uint256":{"encoding":"inplace","label":"uint256","numberOfBytes":"32"}}},"id":68}