{"abi":[{"type":"constructor","inputs":[],"stateMutability":"nonpayable"},{"type":"function","name":"allowance","inputs":[{"name":"owner","type":"address","internalType":"address"},{"name":"spender","type":"address","internalType":"address"}],"outputs":[{"name":"","type":"uint256","internalType":"uint256"}],"stateMutability":"view"},{"type":"function","name":"approve","inputs":[{"name":"spender","type":"address","internalType":"address"},{"name":"value","type":"uint256","internalType":"uint256"}],"outputs":[{"name":"","type":"bool","internalType":"bool"}],"stateMutability":"nonpayable"},{"type":"function","name":"balanceOf","inputs":[{"name":"account","type":"address","internalType":"address"}],"outputs":[{"name":"","type":"uint256","internalType":"uint256"}],"stateMutability":"view"},{"type":"function","name":"claim","inputs":[],"outputs":[{"name":"","type":"bool","internalType":"bool"}],"stateMutability":"nonpayable"},{"type":"function","name":"decimals","inputs":[],"outputs":[{"name":"","type":"uint8","internalType":"uint8"}],"stateMutability":"view"},{"type":"function","name":"initialize","inputs":[{"name":"stakingContract","type":"address","internalType":"contract IFortaStaking"},{"name":"token","type":"address","internalType":"contract IERC20"},{"name":"subject","type":"uint256","internalType":"uint256"},{"name":"shares","type":"uint256","internalType":"uint256"}],"outputs":[],"stateMutability":"nonpayable"},{"type":"function","name":"initiateUndelegate","inputs":[],"outputs":[{"name":"","type":"uint64","internalType":"uint64"}],"stateMutability":"nonpayable"},{"type":"function","name":"name","inputs":[],"outputs":[{"name":"","type":"string","internalType":"string"}],"stateMutability":"view"},{"type":"function","name":"onERC1155BatchReceived","inputs":[{"name":"","type":"address","internalType":"address"},{"name":"","type":"address","internalType":"address"},{"name":"","type":"uint256[]","internalType":"uint256[]"},{"name":"","type":"uint256[]","internalType":"uint256[]"},{"name":"","type":"bytes","internalType":"bytes"}],"outputs":[{"name":"","type":"bytes4","internalType":"bytes4"}],"stateMutability":"nonpayable"},{"type":"function","name":"onERC1155Received","inputs":[{"name":"","type":"address","internalType":"address"},{"name":"","type":"address","internalType":"address"},{"name":"","type":"uint256","internalType":"uint256"},{"name":"","type":"uint256","internalType":"uint256"},{"name":"","type":"bytes","internalType":"bytes"}],"outputs":[{"name":"","type":"bytes4","internalType":"bytes4"}],"stateMutability":"nonpayable"},{"type":"function","name":"owner","inputs":[],"outputs":[{"name":"","type":"address","internalType":"address"}],"stateMutability":"view"},{"type":"function","name":"renounceOwnership","inputs":[],"outputs":[],"stateMutability":"nonpayable"},{"type":"function","name":"supportsInterface","inputs":[{"name":"interfaceId","type":"bytes4","internalType":"bytes4"}],"outputs":[{"name":"","type":"bool","internalType":"bool"}],"stateMutability":"view"},{"type":"function","name":"symbol","inputs":[],"outputs":[{"name":"","type":"string","internalType":"string"}],"stateMutability":"view"},{"type":"function","name":"totalSupply","inputs":[],"outputs":[{"name":"","type":"uint256","internalType":"uint256"}],"stateMutability":"view"},{"type":"function","name":"transfer","inputs":[{"name":"to","type":"address","internalType":"address"},{"name":"value","type":"uint256","internalType":"uint256"}],"outputs":[{"name":"","type":"bool","internalType":"bool"}],"stateMutability":"nonpayable"},{"type":"function","name":"transferFrom","inputs":[{"name":"from","type":"address","internalType":"address"},{"name":"to","type":"address","internalType":"address"},{"name":"value","type":"uint256","internalType":"uint256"}],"outputs":[{"name":"","type":"bool","internalType":"bool"}],"stateMutability":"nonpayable"},{"type":"function","name":"transferOwnership","inputs":[{"name":"newOwner","type":"address","internalType":"address"}],"outputs":[],"stateMutability":"nonpayable"},{"type":"function","name":"undelegate","inputs":[],"outputs":[],"stateMutability":"nonpayable"},{"type":"event","name":"Approval","inputs":[{"name":"owner","type":"address","indexed":true,"internalType":"address"},{"name":"spender","type":"address","indexed":true,"internalType":"address"},{"name":"value","type":"uint256","indexed":false,"internalType":"uint256"}],"anonymous":false},{"type":"event","name":"Initialized","inputs":[{"name":"version","type":"uint64","indexed":false,"internalType":"uint64"}],"anonymous":false},{"type":"event","name":"OwnershipTransferred","inputs":[{"name":"previousOwner","type":"address","indexed":true,"internalType":"address"},{"name":"newOwner","type":"address","indexed":true,"internalType":"address"}],"anonymous":false},{"type":"event","name":"Transfer","inputs":[{"name":"from","type":"address","indexed":true,"internalType":"address"},{"name":"to","type":"address","indexed":true,"internalType":"address"},{"name":"value","type":"uint256","indexed":false,"internalType":"uint256"}],"anonymous":false},{"type":"error","name":"AddressEmptyCode","inputs":[{"name":"target","type":"address","internalType":"address"}]},{"type":"error","name":"AddressInsufficientBalance","inputs":[{"name":"account","type":"address","internalType":"address"}]},{"type":"error","name":"ERC20InsufficientAllowance","inputs":[{"name":"spender","type":"address","internalType":"address"},{"name":"allowance","type":"uint256","internalType":"uint256"},{"name":"needed","type":"uint256","internalType":"uint256"}]},{"type":"error","name":"ERC20InsufficientBalance","inputs":[{"name":"sender","type":"address","internalType":"address"},{"name":"balance","type":"uint256","internalType":"uint256"},{"name":"needed","type":"uint256","internalType":"uint256"}]},{"type":"error","name":"ERC20InvalidApprover","inputs":[{"name":"approver","type":"address","internalType":"address"}]},{"type":"error","name":"ERC20InvalidReceiver","inputs":[{"name":"receiver","type":"address","internalType":"address"}]},{"type":"error","name":"ERC20InvalidSender","inputs":[{"name":"sender","type":"address","internalType":"address"}]},{"type":"error","name":"ERC20InvalidSpender","inputs":[{"name":"spender","type":"address","internalType":"address"}]},{"type":"error","name":"FailedInnerCall","inputs":[]},{"type":"error","name":"InvalidInitialization","inputs":[]},{"type":"error","name":"NotInitializing","inputs":[]},{"type":"error","name":"OwnableInvalidOwner","inputs":[{"name":"owner","type":"address","internalType":"address"}]},{"type":"error","name":"OwnableUnauthorizedAccount","inputs":[{"name":"account","type":"address","internalType":"address"}]},{"type":"error","name":"SafeERC20FailedOperation","inputs":[{"name":"token","type":"address","internalType":"address"}]}],"bytecode":{"object":"0x608060405234801561001057600080fd5b5061001961001e565b6100d0565b7ff0c57e16840df040f15088dc2f81fe391c3923bec73e23a9662efc9c229c6a00805468010000000000000000900460ff161561006e5760405163f92ee8a960e01b815260040160405180910390fd5b80546001600160401b03908116146100cd5780546001600160401b0319166001600160401b0390811782556040519081527fc7f505b2f371ae2175ee4913f4499e1f2633a7b5936321eed1cdaeb6115181d29060200160405180910390a15b50565b61177a806100df6000396000f3fe608060405234801561001057600080fd5b50600436106101215760003560e01c8063715018a6116100ad578063bc197c8111610071578063bc197c8114610252578063dd62ed3e1461028a578063eb990c591461029d578063f23a6e61146102b0578063f2fde38b146102cf57600080fd5b8063715018a6146102055780638da5cb5b1461020f57806392ab89bb1461022f57806395d89b4114610237578063a9059cbb1461023f57600080fd5b806323b872dd116100f457806323b872dd146101a75780632cb7cb0a146101ba578063313ce567146101db5780634e71d92d146101ea57806370a08231146101f257600080fd5b806301ffc9a71461012657806306fdde031461014e578063095ea7b31461016357806318160ddd14610176575b600080fd5b61013961013436600461111a565b6102e2565b60405190151581526020015b60405180910390f35b610156610319565b6040516101459190611168565b6101396101713660046111b0565b6103dc565b7f52c63247e1f47db19d5ce0460030c497f067ca4cebf71ba98eeadabe20bace02545b604051908152602001610145565b6101396101b53660046111dc565b6103f4565b6101c261041a565b60405167ffffffffffffffff9091168152602001610145565b60405160128152602001610145565b6101396104e0565b61019961020036600461121d565b61054a565b61020d610572565b005b610217610586565b6040516001600160a01b039091168152602001610145565b61020d6105b4565b61015661073c565b61013961024d3660046111b0565b61077b565b610271610260366004611371565b63bc197c8160e01b95945050505050565b6040516001600160e01b03199091168152602001610145565b61019961029836600461141f565b610789565b61020d6102ab366004611458565b6107d3565b6102716102be36600461149e565b63f23a6e6160e01b95945050505050565b61020d6102dd36600461121d565b610975565b60006001600160e01b03198216630271189760e51b148061031357506301ffc9a760e01b6001600160e01b03198316145b92915050565b7f52c63247e1f47db19d5ce0460030c497f067ca4cebf71ba98eeadabe20bace0380546060916000805160206117258339815191529161035890611507565b80601f016020809104026020016040519081016040528092919081815260200182805461038490611507565b80156103d15780601f106103a6576101008083540402835291602001916103d1565b820191906000526020600020905b8154815290600101906020018083116103b457829003601f168201915b505050505091505090565b6000336103ea8185856109b8565b5060019392505050565b6000336104028582856109ca565b61040d858585610a2a565b60019150505b9392505050565b6000610424610a89565b60005460025460038054604051633b7a82eb60e21b81526004810192909252602482019290925260448101919091526001600160a01b039091169063edea0bac906064016020604051808303816000875af1158015610487573d6000803e3d6000fd5b505050506040513d601f19601f820116820180604052508101906104ab9190611541565b6000805467ffffffffffffffff60a81b1916600160a81b67ffffffffffffffff93841681029190911791829055900416919050565b60008054600160a01b900460ff166104f85750600090565b60006105116105063361054a565b600454600354610abb565b9050801561053057600154610530906001600160a01b03163383610b7d565b6105423361053d3361054a565b610bcf565b600191505090565b6001600160a01b03166000908152600080516020611725833981519152602052604090205490565b61057a610a89565b6105846000610c09565b565b7f9016d09d72d40fdae2fd8ceac6b6234c7706214fd39c1cd1e609a0528c199300546001600160a01b031690565b6105bc610a89565b600054600254604051630fd2264560e21b81526003600482015260248101919091526001600160a01b0390911690633f489914906044016020604051808303816000875af1158015610612573d6000803e3d6000fd5b505050506040513d601f19601f82011682018060405250810190610636919061156b565b506001546040516370a0823160e01b81523060048201526000916001600160a01b0316906370a0823190602401602060405180830381865afa158015610680573d6000803e3d6000fd5b505050506040513d601f19601f820116820180604052508101906106a4919061156b565b60048190556000805460ff60a01b1916600160a01b1781559091506106ca610200610586565b90506000816003546106dc919061159a565b905060006106ef82600454600354610abb565b6106f9908561159a565b9050801561071f5761071f61070c610586565b6001546001600160a01b03169083610b7d565b821561073657610736610730610586565b84610bcf565b50505050565b7f52c63247e1f47db19d5ce0460030c497f067ca4cebf71ba98eeadabe20bace0480546060916000805160206117258339815191529161035890611507565b6000336103ea818585610a2a565b6001600160a01b0391821660009081527f52c63247e1f47db19d5ce0460030c497f067ca4cebf71ba98eeadabe20bace016020908152604080832093909416825291909152205490565b7ff0c57e16840df040f15088dc2f81fe391c3923bec73e23a9662efc9c229c6a008054600160401b810460ff16159067ffffffffffffffff166000811580156108195750825b905060008267ffffffffffffffff1660011480156108365750303b155b905081158015610844575080155b156108625760405163f92ee8a960e01b815260040160405180910390fd5b845467ffffffffffffffff19166001178555831561088c57845460ff60401b1916600160401b1785555b61089533610c7a565b6108e06040518060400160405280600f81526020016e496e6163746976652053686172657360881b81525060405180604001604052806002815260200161495360f01b815250610c8b565b600080546001600160a01b03808c166001600160a01b0319928316179092556003889055600289905560018054928b16929091169190911790556109243387610c9d565b831561096a57845460ff60401b19168555604051600181527fc7f505b2f371ae2175ee4913f4499e1f2633a7b5936321eed1cdaeb6115181d29060200160405180910390a15b505050505050505050565b61097d610a89565b6001600160a01b0381166109ac57604051631e4fbdf760e01b8152600060048201526024015b60405180910390fd5b6109b581610c09565b50565b6109c58383836001610cd3565b505050565b60006109d68484610789565b905060001981146107365781811015610a1b57604051637dc7a0d960e11b81526001600160a01b038416600482015260248101829052604481018390526064016109a3565b61073684848484036000610cd3565b6001600160a01b038316610a5457604051634b637e8f60e11b8152600060048201526024016109a3565b6001600160a01b038216610a7e5760405163ec442f0560e01b8152600060048201526024016109a3565b6109c5838383610dbb565b33610a92610586565b6001600160a01b0316146105845760405163118cdaa760e01b81523360048201526024016109a3565b6000838302816000198587098281108382030391505080600003610af257838281610ae857610ae86115ad565b0492505050610413565b808411610b1057610b108415610b09576011610ef9565b6012610ef9565b6000848688096000868103871696879004966002600389028118808a02820302808a02820302808a02820302808a02820302808a02820302808a02909103029181900381900460010186841190950394909402919094039290920491909117919091029150509392505050565b604080516001600160a01b038416602482015260448082018490528251808303909101815260649091019091526020810180516001600160e01b031663a9059cbb60e01b1790526109c5908490610f0e565b6001600160a01b038216610bf957604051634b637e8f60e11b8152600060048201526024016109a3565b610c0582600083610dbb565b5050565b7f9016d09d72d40fdae2fd8ceac6b6234c7706214fd39c1cd1e609a0528c19930080546001600160a01b031981166001600160a01b03848116918217845560405192169182907f8be0079c531659141344cd1fd0a4f28419497f9722a3daafe3b4186f6b6457e090600090a3505050565b610c82610f71565b6109b581610fba565b610c93610f71565b610c058282610fc2565b6001600160a01b038216610cc75760405163ec442f0560e01b8152600060048201526024016109a3565b610c0560008383610dbb565b6000805160206117258339815191526001600160a01b038516610d0c5760405163e602df0560e01b8152600060048201526024016109a3565b6001600160a01b038416610d3657604051634a1406b160e11b8152600060048201526024016109a3565b6001600160a01b03808616600090815260018301602090815260408083209388168352929052208390558115610db457836001600160a01b0316856001600160a01b03167f8c5be1e5ebec7d5bd14f71427d1e84f3dd0314c0f7b2291e5b200ac8c7c3b92585604051610dab91815260200190565b60405180910390a35b5050505050565b6000805160206117258339815191526001600160a01b038416610df75781816002016000828254610dec91906115c3565b90915550610e699050565b6001600160a01b03841660009081526020829052604090205482811015610e4a5760405163391434e360e21b81526001600160a01b038616600482015260248101829052604481018490526064016109a3565b6001600160a01b03851660009081526020839052604090209083900390555b6001600160a01b038316610e87576002810180548390039055610ea6565b6001600160a01b03831660009081526020829052604090208054830190555b826001600160a01b0316846001600160a01b03167fddf252ad1be2c89b69c2b068fc378daa952ba7f163c4a11628f55a4df523b3ef84604051610eeb91815260200190565b60405180910390a350505050565b634e487b7160e01b6000528060045260246000fd5b6000610f236001600160a01b03841683611013565b90508051600014158015610f48575080806020019051810190610f4691906115d6565b155b156109c557604051635274afe760e01b81526001600160a01b03841660048201526024016109a3565b7ff0c57e16840df040f15088dc2f81fe391c3923bec73e23a9662efc9c229c6a0054600160401b900460ff1661058457604051631afcd79f60e31b815260040160405180910390fd5b61097d610f71565b610fca610f71565b6000805160206117258339815191527f52c63247e1f47db19d5ce0460030c497f067ca4cebf71ba98eeadabe20bace036110048482611648565b50600481016107368382611648565b60606104138383600084600080856001600160a01b031684866040516110399190611708565b60006040518083038185875af1925050503d8060008114611076576040519150601f19603f3d011682016040523d82523d6000602084013e61107b565b606091505b509150915061108b868383611095565b9695505050505050565b6060826110aa576110a5826110f1565b610413565b81511580156110c157506001600160a01b0384163b155b156110ea57604051639996b31560e01b81526001600160a01b03851660048201526024016109a3565b5080610413565b8051156111015780518082602001fd5b604051630a12f52160e11b815260040160405180910390fd5b60006020828403121561112c57600080fd5b81356001600160e01b03198116811461041357600080fd5b60005b8381101561115f578181015183820152602001611147565b50506000910152565b6020815260008251806020840152611187816040850160208701611144565b601f01601f19169190910160400192915050565b6001600160a01b03811681146109b557600080fd5b600080604083850312156111c357600080fd5b82356111ce8161119b565b946020939093013593505050565b6000806000606084860312156111f157600080fd5b83356111fc8161119b565b9250602084013561120c8161119b565b929592945050506040919091013590565b60006020828403121561122f57600080fd5b81356104138161119b565b634e487b7160e01b600052604160045260246000fd5b604051601f8201601f1916810167ffffffffffffffff811182821017156112795761127961123a565b604052919050565b600082601f83011261129257600080fd5b8135602067ffffffffffffffff8211156112ae576112ae61123a565b8160051b6112bd828201611250565b92835284810182019282810190878511156112d757600080fd5b83870192505b848310156112f6578235825291830191908301906112dd565b979650505050505050565b600082601f83011261131257600080fd5b813567ffffffffffffffff81111561132c5761132c61123a565b61133f601f8201601f1916602001611250565b81815284602083860101111561135457600080fd5b816020850160208301376000918101602001919091529392505050565b600080600080600060a0868803121561138957600080fd5b85356113948161119b565b945060208601356113a48161119b565b9350604086013567ffffffffffffffff808211156113c157600080fd5b6113cd89838a01611281565b945060608801359150808211156113e357600080fd5b6113ef89838a01611281565b9350608088013591508082111561140557600080fd5b5061141288828901611301565b9150509295509295909350565b6000806040838503121561143257600080fd5b823561143d8161119b565b9150602083013561144d8161119b565b809150509250929050565b6000806000806080858703121561146e57600080fd5b84356114798161119b565b935060208501356114898161119b565b93969395505050506040820135916060013590565b600080600080600060a086880312156114b657600080fd5b85356114c18161119b565b945060208601356114d18161119b565b93506040860135925060608601359150608086013567ffffffffffffffff8111156114fb57600080fd5b61141288828901611301565b600181811c9082168061151b57607f821691505b60208210810361153b57634e487b7160e01b600052602260045260246000fd5b50919050565b60006020828403121561155357600080fd5b815167ffffffffffffffff8116811461041357600080fd5b60006020828403121561157d57600080fd5b5051919050565b634e487b7160e01b600052601160045260246000fd5b8181038181111561031357610313611584565b634e487b7160e01b600052601260045260246000fd5b8082018082111561031357610313611584565b6000602082840312156115e857600080fd5b8151801515811461041357600080fd5b601f8211156109c5576000816000526020600020601f850160051c810160208610156116215750805b601f850160051c820191505b818110156116405782815560010161162d565b505050505050565b815167ffffffffffffffff8111156116625761166261123a565b611676816116708454611507565b846115f8565b602080601f8311600181146116ab57600084156116935750858301515b600019600386901b1c1916600185901b178555611640565b600085815260208120601f198616915b828110156116da578886015182559484019460019091019084016116bb565b50858210156116f85787850151600019600388901b60f8161c191681555b5050505050600190811b01905550565b6000825161171a818460208701611144565b919091019291505056fe52c63247e1f47db19d5ce0460030c497f067ca4cebf71ba98eeadabe20bace00a2646970667358221220ab781788c66b881d8b62366084509ba1ec4fdab313063b5957265a98982dc8a464736f6c63430008170033","linkReferences":{}},"methodIdentifiers":{"allowance(address,address)":"dd62ed3e","approve(address,uint256)":"095ea7b3","balanceOf(address)":"70a08231","claim()":"4e71d92d","decimals()":"313ce567","initialize(address,address,uint256,uint256)":"eb990c59","initiateUndelegate()":"2cb7cb0a","name()":"06fdde03","onERC1155BatchReceived(address,address,uint256[],uint256[],bytes)":"bc197c81","onERC1155Received(address,address,uint256,uint256,bytes)":"f23a6e61","owner()":"8da5cb5b","renounceOwnership()":"715018a6","supportsInterface(bytes4)":"01ffc9a7","symbol()":"95d89b41","totalSupply()":"18160ddd","transfer(address,uint256)":"a9059cbb","transferFrom(address,address,uint256)":"23b872dd","transferOwnership(address)":"f2fde38b","undelegate()":"92ab89bb"},"storageLayout":{"storage":[{"astId":58866,"contract":"src/InactiveSharesDistributor.sol:InactiveSharesDistributor","label":"_staking","offset":0,"slot":"0","type":"t_contract(IFortaStaking)60139"},{"astId":58868,"contract":"src/InactiveSharesDistributor.sol:InactiveSharesDistributor","label":"_claimable","offset":20,"slot":"0","type":"t_bool"},{"astId":58870,"contract":"src/InactiveSharesDistributor.sol:InactiveSharesDistributor","label":"_deadline","offset":21,"slot":"0","type":"t_uint64"},{"astId":58873,"contract":"src/InactiveSharesDistributor.sol:InactiveSharesDistributor","label":"_token","offset":0,"slot":"1","type":"t_contract(IERC20)48889"},{"astId":58875,"contract":"src/InactiveSharesDistributor.sol:InactiveSharesDistributor","label":"_subject","offset":0,"slot":"2","type":"t_uint256"},{"astId":58877,"contract":"src/InactiveSharesDistributor.sol:InactiveSharesDistributor","label":"_shares","offset":0,"slot":"3","type":"t_uint256"},{"astId":58879,"contract":"src/InactiveSharesDistributor.sol:InactiveSharesDistributor","label":"_assetsReceived","offset":0,"slot":"4","type":"t_uint256"}],"types":{"t_bool":{"encoding":"inplace","label":"bool","numberOfBytes":"1"},"t_contract(IERC20)48889":{"encoding":"inplace","label":"contract IERC20","numberOfBytes":"20"},"t_contract(IFortaStaking)60139":{"encoding":"inplace","label":"contract IFortaStaking","numberOfBytes":"20"},"t_uint256":{"encoding":"inplace","label":"uint256","numberOfBytes":"32"},"t_uint64":{"encoding":"inplace","label":"uint64","numberOfBytes":"8"}}},"id":67}