{"abi":[{"type":"constructor","inputs":[],"stateMutability":"nonpayable"},{"type":"function","name":"DEFAULT_ADMIN_ROLE","inputs":[],"outputs":[{"name":"","type":"bytes32","internalType":"bytes32"}],"stateMutability":"view"},{"type":"function","name":"OPERATOR_ROLE","inputs":[],"outputs":[{"name":"","type":"bytes32","internalType":"bytes32"}],"stateMutability":"view"},{"type":"function","name":"allowance","inputs":[{"name":"owner","type":"address","internalType":"address"},{"name":"spender","type":"address","internalType":"address"}],"outputs":[{"name":"","type":"uint256","internalType":"uint256"}],"stateMutability":"view"},{"type":"function","name":"approve","inputs":[{"name":"spender","type":"address","internalType":"address"},{"name":"value","type":"uint256","internalType":"uint256"}],"outputs":[{"name":"","type":"bool","internalType":"bool"}],"stateMutability":"nonpayable"},{"type":"function","name":"asset","inputs":[],"outputs":[{"name":"","type":"address","internalType":"address"}],"stateMutability":"view"},{"type":"function","name":"balanceOf","inputs":[{"name":"account","type":"address","internalType":"address"}],"outputs":[{"name":"","type":"uint256","internalType":"uint256"}],"stateMutability":"view"},{"type":"function","name":"claimRedeem","inputs":[{"name":"receiver","type":"address","internalType":"address"}],"outputs":[{"name":"","type":"uint256","internalType":"uint256"}],"stateMutability":"nonpayable"},{"type":"function","name":"claimRewards","inputs":[{"name":"subjectId","type":"uint256","internalType":"uint256"},{"name":"epochNumber","type":"uint256","internalType":"uint256"}],"outputs":[],"stateMutability":"nonpayable"},{"type":"function","name":"convertToAssets","inputs":[{"name":"shares","type":"uint256","internalType":"uint256"}],"outputs":[{"name":"","type":"uint256","internalType":"uint256"}],"stateMutability":"view"},{"type":"function","name":"convertToShares","inputs":[{"name":"assets","type":"uint256","internalType":"uint256"}],"outputs":[{"name":"","type":"uint256","internalType":"uint256"}],"stateMutability":"view"},{"type":"function","name":"decimals","inputs":[],"outputs":[{"name":"","type":"uint8","internalType":"uint8"}],"stateMutability":"view"},{"type":"function","name":"delegate","inputs":[{"name":"subject","type":"uint256","internalType":"uint256"},{"name":"assets","type":"uint256","internalType":"uint256"}],"outputs":[],"stateMutability":"nonpayable"},{"type":"function","name":"deposit","inputs":[{"name":"assets","type":"uint256","internalType":"uint256"},{"name":"receiver","type":"address","internalType":"address"}],"outputs":[{"name":"","type":"uint256","internalType":"uint256"}],"stateMutability":"nonpayable"},{"type":"function","name":"feeInBasisPoints","inputs":[],"outputs":[{"name":"","type":"uint256","internalType":"uint256"}],"stateMutability":"view"},{"type":"function","name":"feeTreasury","inputs":[],"outputs":[{"name":"","type":"address","internalType":"address"}],"stateMutability":"view"},{"type":"function","name":"getRedemptionReceiver","inputs":[{"name":"user","type":"address","internalType":"address"}],"outputs":[{"name":"","type":"address","internalType":"address"}],"stateMutability":"view"},{"type":"function","name":"getRoleAdmin","inputs":[{"name":"role","type":"bytes32","internalType":"bytes32"}],"outputs":[{"name":"","type":"bytes32","internalType":"bytes32"}],"stateMutability":"view"},{"type":"function","name":"grantRole","inputs":[{"name":"role","type":"bytes32","internalType":"bytes32"},{"name":"account","type":"address","internalType":"address"}],"outputs":[],"stateMutability":"nonpayable"},{"type":"function","name":"hasRole","inputs":[{"name":"role","type":"bytes32","internalType":"bytes32"},{"name":"account","type":"address","internalType":"address"}],"outputs":[{"name":"","type":"bool","internalType":"bool"}],"stateMutability":"view"},{"type":"function","name":"initialize","inputs":[{"name":"asset_","type":"address","internalType":"address"},{"name":"fortaStaking","type":"address","internalType":"address"},{"name":"redemptionReceiverImplementation","type":"address","internalType":"address"},{"name":"inactiveSharesDistributorImplementation","type":"address","internalType":"address"},{"name":"operatorFeeInBasisPoints","type":"uint256","internalType":"uint256"},{"name":"operatorFeeTreasury","type":"address","internalType":"address"},{"name":"rewardsDistributor","type":"address","internalType":"address"}],"outputs":[],"stateMutability":"nonpayable"},{"type":"function","name":"initiateUndelegate","inputs":[{"name":"subject","type":"uint256","internalType":"uint256"},{"name":"shares","type":"uint256","internalType":"uint256"}],"outputs":[{"name":"","type":"uint256","internalType":"uint256"},{"name":"","type":"address","internalType":"address"}],"stateMutability":"nonpayable"},{"type":"function","name":"maxDeposit","inputs":[{"name":"","type":"address","internalType":"address"}],"outputs":[{"name":"","type":"uint256","internalType":"uint256"}],"stateMutability":"view"},{"type":"function","name":"maxMint","inputs":[{"name":"","type":"address","internalType":"address"}],"outputs":[{"name":"","type":"uint256","internalType":"uint256"}],"stateMutability":"view"},{"type":"function","name":"maxRedeem","inputs":[{"name":"owner","type":"address","internalType":"address"}],"outputs":[{"name":"","type":"uint256","internalType":"uint256"}],"stateMutability":"view"},{"type":"function","name":"maxWithdraw","inputs":[{"name":"owner","type":"address","internalType":"address"}],"outputs":[{"name":"","type":"uint256","internalType":"uint256"}],"stateMutability":"view"},{"type":"function","name":"mint","inputs":[{"name":"shares","type":"uint256","internalType":"uint256"},{"name":"receiver","type":"address","internalType":"address"}],"outputs":[{"name":"","type":"uint256","internalType":"uint256"}],"stateMutability":"nonpayable"},{"type":"function","name":"name","inputs":[],"outputs":[{"name":"","type":"string","internalType":"string"}],"stateMutability":"view"},{"type":"function","name":"onERC1155BatchReceived","inputs":[{"name":"","type":"address","internalType":"address"},{"name":"","type":"address","internalType":"address"},{"name":"","type":"uint256[]","internalType":"uint256[]"},{"name":"","type":"uint256[]","internalType":"uint256[]"},{"name":"","type":"bytes","internalType":"bytes"}],"outputs":[{"name":"","type":"bytes4","internalType":"bytes4"}],"stateMutability":"nonpayable"},{"type":"function","name":"onERC1155Received","inputs":[{"name":"","type":"address","internalType":"address"},{"name":"","type":"address","internalType":"address"},{"name":"","type":"uint256","internalType":"uint256"},{"name":"","type":"uint256","internalType":"uint256"},{"name":"","type":"bytes","internalType":"bytes"}],"outputs":[{"name":"","type":"bytes4","internalType":"bytes4"}],"stateMutability":"nonpayable"},{"type":"function","name":"previewDeposit","inputs":[{"name":"assets","type":"uint256","internalType":"uint256"}],"outputs":[{"name":"","type":"uint256","internalType":"uint256"}],"stateMutability":"view"},{"type":"function","name":"previewMint","inputs":[{"name":"shares","type":"uint256","internalType":"uint256"}],"outputs":[{"name":"","type":"uint256","internalType":"uint256"}],"stateMutability":"view"},{"type":"function","name":"previewRedeem","inputs":[{"name":"shares","type":"uint256","internalType":"uint256"}],"outputs":[{"name":"","type":"uint256","internalType":"uint256"}],"stateMutability":"view"},{"type":"function","name":"previewWithdraw","inputs":[{"name":"assets","type":"uint256","internalType":"uint256"}],"outputs":[{"name":"","type":"uint256","internalType":"uint256"}],"stateMutability":"view"},{"type":"function","name":"redeem","inputs":[{"name":"shares","type":"uint256","internalType":"uint256"},{"name":"receiver","type":"address","internalType":"address"},{"name":"owner","type":"address","internalType":"address"}],"outputs":[{"name":"","type":"uint256","internalType":"uint256"}],"stateMutability":"nonpayable"},{"type":"function","name":"renounceRole","inputs":[{"name":"role","type":"bytes32","internalType":"bytes32"},{"name":"callerConfirmation","type":"address","internalType":"address"}],"outputs":[],"stateMutability":"nonpayable"},{"type":"function","name":"revokeRole","inputs":[{"name":"role","type":"bytes32","internalType":"bytes32"},{"name":"account","type":"address","internalType":"address"}],"outputs":[],"stateMutability":"nonpayable"},{"type":"function","name":"subjects","inputs":[{"name":"","type":"uint256","internalType":"uint256"}],"outputs":[{"name":"","type":"uint256","internalType":"uint256"}],"stateMutability":"view"},{"type":"function","name":"supportsInterface","inputs":[{"name":"interfaceId","type":"bytes4","internalType":"bytes4"}],"outputs":[{"name":"","type":"bool","internalType":"bool"}],"stateMutability":"view"},{"type":"function","name":"symbol","inputs":[],"outputs":[{"name":"","type":"string","internalType":"string"}],"stateMutability":"view"},{"type":"function","name":"totalAssets","inputs":[],"outputs":[{"name":"","type":"uint256","internalType":"uint256"}],"stateMutability":"view"},{"type":"function","name":"totalSupply","inputs":[],"outputs":[{"name":"","type":"uint256","internalType":"uint256"}],"stateMutability":"view"},{"type":"function","name":"transfer","inputs":[{"name":"to","type":"address","internalType":"address"},{"name":"value","type":"uint256","internalType":"uint256"}],"outputs":[{"name":"","type":"bool","internalType":"bool"}],"stateMutability":"nonpayable"},{"type":"function","name":"transferFrom","inputs":[{"name":"from","type":"address","internalType":"address"},{"name":"to","type":"address","internalType":"address"},{"name":"value","type":"uint256","internalType":"uint256"}],"outputs":[{"name":"","type":"bool","internalType":"bool"}],"stateMutability":"nonpayable"},{"type":"function","name":"undelegate","inputs":[{"name":"subject","type":"uint256","internalType":"uint256"}],"outputs":[],"stateMutability":"nonpayable"},{"type":"function","name":"updateFeeBasisPoints","inputs":[{"name":"feeBasisPoints","type":"uint256","internalType":"uint256"}],"outputs":[],"stateMutability":"nonpayable"},{"type":"function","name":"updateFeeTreasury","inputs":[{"name":"treasury","type":"address","internalType":"address"}],"outputs":[],"stateMutability":"nonpayable"},{"type":"function","name":"withdraw","inputs":[{"name":"assets","type":"uint256","internalType":"uint256"},{"name":"receiver","type":"address","internalType":"address"},{"name":"owner","type":"address","internalType":"address"}],"outputs":[{"name":"","type":"uint256","internalType":"uint256"}],"stateMutability":"nonpayable"},{"type":"event","name":"Approval","inputs":[{"name":"owner","type":"address","indexed":true,"internalType":"address"},{"name":"spender","type":"address","indexed":true,"internalType":"address"},{"name":"value","type":"uint256","indexed":false,"internalType":"uint256"}],"anonymous":false},{"type":"event","name":"Deposit","inputs":[{"name":"sender","type":"address","indexed":true,"internalType":"address"},{"name":"owner","type":"address","indexed":true,"internalType":"address"},{"name":"assets","type":"uint256","indexed":false,"internalType":"uint256"},{"name":"shares","type":"uint256","indexed":false,"internalType":"uint256"}],"anonymous":false},{"type":"event","name":"Initialized","inputs":[{"name":"version","type":"uint64","indexed":false,"internalType":"uint64"}],"anonymous":false},{"type":"event","name":"RoleAdminChanged","inputs":[{"name":"role","type":"bytes32","indexed":true,"internalType":"bytes32"},{"name":"previousAdminRole","type":"bytes32","indexed":true,"internalType":"bytes32"},{"name":"newAdminRole","type":"bytes32","indexed":true,"internalType":"bytes32"}],"anonymous":false},{"type":"event","name":"RoleGranted","inputs":[{"name":"role","type":"bytes32","indexed":true,"internalType":"bytes32"},{"name":"account","type":"address","indexed":true,"internalType":"address"},{"name":"sender","type":"address","indexed":true,"internalType":"address"}],"anonymous":false},{"type":"event","name":"RoleRevoked","inputs":[{"name":"role","type":"bytes32","indexed":true,"internalType":"bytes32"},{"name":"account","type":"address","indexed":true,"internalType":"address"},{"name":"sender","type":"address","indexed":true,"internalType":"address"}],"anonymous":false},{"type":"event","name":"Transfer","inputs":[{"name":"from","type":"address","indexed":true,"internalType":"address"},{"name":"to","type":"address","indexed":true,"internalType":"address"},{"name":"value","type":"uint256","indexed":false,"internalType":"uint256"}],"anonymous":false},{"type":"event","name":"Withdraw","inputs":[{"name":"sender","type":"address","indexed":true,"internalType":"address"},{"name":"receiver","type":"address","indexed":true,"internalType":"address"},{"name":"owner","type":"address","indexed":true,"internalType":"address"},{"name":"assets","type":"uint256","indexed":false,"internalType":"uint256"},{"name":"shares","type":"uint256","indexed":false,"internalType":"uint256"}],"anonymous":false},{"type":"error","name":"AccessControlBadConfirmation","inputs":[]},{"type":"error","name":"AccessControlUnauthorizedAccount","inputs":[{"name":"account","type":"address","internalType":"address"},{"name":"neededRole","type":"bytes32","internalType":"bytes32"}]},{"type":"error","name":"AddressEmptyCode","inputs":[{"name":"target","type":"address","internalType":"address"}]},{"type":"error","name":"AddressInsufficientBalance","inputs":[{"name":"account","type":"address","internalType":"address"}]},{"type":"error","name":"ERC1167FailedCreateClone","inputs":[]},{"type":"error","name":"ERC20InsufficientAllowance","inputs":[{"name":"spender","type":"address","internalType":"address"},{"name":"allowance","type":"uint256","internalType":"uint256"},{"name":"needed","type":"uint256","internalType":"uint256"}]},{"type":"error","name":"ERC20InsufficientBalance","inputs":[{"name":"sender","type":"address","internalType":"address"},{"name":"balance","type":"uint256","internalType":"uint256"},{"name":"needed","type":"uint256","internalType":"uint256"}]},{"type":"error","name":"ERC20InvalidApprover","inputs":[{"name":"approver","type":"address","internalType":"address"}]},{"type":"error","name":"ERC20InvalidReceiver","inputs":[{"name":"receiver","type":"address","internalType":"address"}]},{"type":"error","name":"ERC20InvalidSender","inputs":[{"name":"sender","type":"address","internalType":"address"}]},{"type":"error","name":"ERC20InvalidSpender","inputs":[{"name":"spender","type":"address","internalType":"address"}]},{"type":"error","name":"ERC4626ExceededMaxDeposit","inputs":[{"name":"receiver","type":"address","internalType":"address"},{"name":"assets","type":"uint256","internalType":"uint256"},{"name":"max","type":"uint256","internalType":"uint256"}]},{"type":"error","name":"ERC4626ExceededMaxMint","inputs":[{"name":"receiver","type":"address","internalType":"address"},{"name":"shares","type":"uint256","internalType":"uint256"},{"name":"max","type":"uint256","internalType":"uint256"}]},{"type":"error","name":"ERC4626ExceededMaxRedeem","inputs":[{"name":"owner","type":"address","internalType":"address"},{"name":"shares","type":"uint256","internalType":"uint256"},{"name":"max","type":"uint256","internalType":"uint256"}]},{"type":"error","name":"ERC4626ExceededMaxWithdraw","inputs":[{"name":"owner","type":"address","internalType":"address"},{"name":"assets","type":"uint256","internalType":"uint256"},{"name":"max","type":"uint256","internalType":"uint256"}]},{"type":"error","name":"FailedInnerCall","inputs":[]},{"type":"error","name":"InvalidFee","inputs":[]},{"type":"error","name":"InvalidInitialization","inputs":[]},{"type":"error","name":"InvalidTreasury","inputs":[]},{"type":"error","name":"InvalidUndelegation","inputs":[]},{"type":"error","name":"NotInitializing","inputs":[]},{"type":"error","name":"NotOperator","inputs":[]},{"type":"error","name":"PendingUndelegation","inputs":[]},{"type":"error","name":"SafeERC20FailedOperation","inputs":[{"name":"token","type":"address","internalType":"address"}]}],"bytecode":{"object":"0x60806040523480156200001157600080fd5b506200001c62000022565b620000d6565b7ff0c57e16840df040f15088dc2f81fe391c3923bec73e23a9662efc9c229c6a00805468010000000000000000900460ff1615620000735760405163f92ee8a960e01b815260040160405180910390fd5b80546001600160401b0390811614620000d35780546001600160401b0319166001600160401b0390811782556040519081527fc7f505b2f371ae2175ee4913f4499e1f2633a7b5936321eed1cdaeb6115181d29060200160405180910390a15b50565b613ba780620000e66000396000f3fe608060405234801561001057600080fd5b50600436106102955760003560e01c80636e553f6511610167578063c63d75b6116100ce578063d9a3495211610087578063d9a34952146105c6578063dd62ed3e146105d9578063ef8b30f714610567578063f23a6e61146105ec578063f5b541a61461060b578063fbbda4131461063257600080fd5b8063c63d75b61461041d578063c6e6f59214610567578063ce96cb771461057a578063d4a0d4c61461058d578063d547741f146105a0578063d905777e146105b357600080fd5b8063a9059cbb11610120578063a9059cbb146104da578063b3d7f6b9146104ed578063b45edf4714610500578063b460af9414610509578063ba0876521461051c578063bc197c811461052f57600080fd5b80636e553f651461047e57806370a082311461049157806391d14854146104a457806394bf804d146104b757806395d89b41146104ca578063a217fddf146104d257600080fd5b80632c7424af1161020b578063402d267d116101c4578063402d267d1461041d5780634cdad506146102e957806357802c7d14610432578063594dd4321461044557806360dc2340146104585780636c68c0e11461046b57600080fd5b80632c7424af146103855780632f2ff15d14610398578063313ce567146103ab57806336568abe146103c557806338d52e0f146103d85780633c8edb201461040a57600080fd5b80630a28a4771161025d5780630a28a4771461030f5780630c5cb572146103225780630eaf43f21461033557806318160ddd1461034a57806323b872dd1461035f578063248a9ca31461037257600080fd5b806301e1d1141461029a57806301ffc9a7146102b157806306fdde03146102d457806307a2d13a146102e9578063095ea7b3146102fc575b600080fd5b600e545b6040519081526020015b60405180910390f35b6102c46102bf366004613178565b610662565b60405190151581526020016102a8565b6102dc610673565b6040516102a891906131c6565b61029e6102f73660046131f9565b610736565b6102c461030a366004613229565b610743565b61029e61031d3660046131f9565b61075b565b61029e610330366004613253565b610768565b61034861034336600461326e565b610800565b005b600080516020613b128339815191525461029e565b6102c461036d3660046132ed565b610a03565b61029e6103803660046131f9565b610a27565b61029e6103933660046131f9565b610a49565b6103486103a6366004613329565b610a6a565b6103b3610a8c565b60405160ff90911681526020016102a8565b6103486103d3366004613329565b610abe565b600080516020613b52833981519152546001600160a01b03165b6040516001600160a01b0390911681526020016102a8565b6103f2610418366004613253565b610af6565b61029e61042b366004613253565b5060001990565b6103486104403660046131f9565b610b86565b610348610453366004613355565b610bb9565b6008546103f2906001600160a01b031681565b6103486104793660046131f9565b610c66565b61029e61048c366004613329565b6110ab565b61029e61049f366004613253565b6111ce565b6102c46104b2366004613329565b6111f6565b61029e6104c5366004613329565b61122e565b6102dc611262565b61029e600081565b6102c46104e8366004613229565b6112a1565b61029e6104fb3660046131f9565b6112af565b61029e60075481565b61029e610517366004613377565b6112bc565b61029e61052a366004613377565b611314565b61054e61053d3660046134e7565b63bc197c8160e01b95945050505050565b6040516001600160e01b031990911681526020016102a8565b61029e6105753660046131f9565b611ab6565b61029e610588366004613253565b611ac3565b61034861059b366004613253565b611ad8565b6103486105ae366004613329565b611b2d565b61029e6105c1366004613253565b611b49565b6103486105d4366004613355565b611b54565b61029e6105e7366004613590565b611dbe565b61054e6105fa3660046135ba565b63f23a6e6160e01b95945050505050565b61029e7f97667070c54ef182b0f5858b034beac1b6f3089aa2d3188bb1e8929f4fa9b92981565b610645610640366004613355565b611e08565b604080519283526001600160a01b039091166020830152016102a8565b600061066d82612033565b92915050565b7f52c63247e1f47db19d5ce0460030c497f067ca4cebf71ba98eeadabe20bace038054606091600080516020613af2833981519152916106b29061361e565b80601f01602080910402602001604051908101604052809291908181526020018280546106de9061361e565b801561072b5780601f106107005761010080835404028352916020019161072b565b820191906000526020600020905b81548152906001019060200180831161070e57829003601f168201915b505050505091505090565b600061066d826000612058565b6000336107518185856120a0565b5060019392505050565b600061066d8260016120ad565b60008061077433610af6565b6007546008546040516304f4b51360e51b81526001600160a01b03878116600483015260248201939093529082166044820152919250821690639e96a260906064016020604051808303816000875af11580156107d5573d6000803e3d6000fd5b505050506040513d601f19601f820116820180604052508101906107f99190613658565b9392505050565b7ff0c57e16840df040f15088dc2f81fe391c3923bec73e23a9662efc9c229c6a008054600160401b810460ff1615906001600160401b03166000811580156108455750825b90506000826001600160401b031660011480156108615750303b155b90508115801561086f575080155b1561088d5760405163f92ee8a960e01b815260040160405180910390fd5b845467ffffffffffffffff1916600117855583156108b757845460ff60401b1916600160401b1785555b610908604051806040016040528060128152602001711193d4950814dd185ada5b99c815985d5b1d60721b815250604051806040016040528060058152602001641d9193d49560da1b8152506120e5565b6109118c612136565b61091c6000336121a8565b506109477f97667070c54ef182b0f5858b034beac1b6f3089aa2d3188bb1e8929f4fa9b929336121a8565b50600a80546001600160a01b03199081166001600160a01b038e8116919091179092556009805482168f8416179055600c805482168d8416179055600d805482168c8416179055600b8054821689841617905560078a90556008805490911691891691909117905583156109f557845460ff60401b19168555604051600181527fc7f505b2f371ae2175ee4913f4499e1f2633a7b5936321eed1cdaeb6115181d29060200160405180910390a15b505050505050505050505050565b600033610a1185828561224d565b610a1c85858561229a565b506001949350505050565b6000908152600080516020613b32833981519152602052604090206001015490565b60028181548110610a5957600080fd5b600091825260209091200154905081565b610a7382610a27565b610a7c816122f9565b610a8683836121a8565b50505050565b600080600080516020613b52833981519152905060008154610ab89190600160a01b900460ff16613687565b91505090565b6001600160a01b0381163314610ae75760405163334bd91960e11b815260040160405180910390fd5b610af18282612306565b505050565b604080516001600160a01b03838116602080840191909152835180840382018152838501948590528051910120600c543060788501526f5af43d82803e903d91602b57fd5bf3ff60648501529091166054830152733d602d80600a3d3981f3363d3d373d3d3d363d7390925260988101919091526037604c82012060b8820152605560839091012060009061066d565b6000610b91816122f9565b6127108210610bb3576040516358d620b360e01b815260040160405180910390fd5b50600755565b604080516001808252818301909252600091602080830190803683370190505090508181600081518110610bef57610bef6136a0565b6020908102919091010152600b546040516319865f6560e01b81526001600160a01b03909116906319865f6590610c2f90600390879086906004016136f2565b600060405180830381600087803b158015610c4957600080fd5b505af1158015610c5d573d6000803e3d6000fd5b50505050505050565b610c6f81612382565b6000818152600460205260409020541580610c97575060008181526004602052604090205442105b80610d115750600a546040516375e130ad60e01b815260036004820152602481018390526001600160a01b03909116906375e130ad90604401602060405180830381865afa158015610ced573d6000803e3d6000fd5b505050506040513d601f19601f82011682018060405250810190610d119190613714565b15610d2f576040516301481cd760e71b815260040160405180910390fd5b6000818152600360205260408120546006805491929183908110610d5557610d556136a0565b60009182526020822001546009546040516370a0823160e01b81523060048201526001600160a01b0392831694509116906370a0823190602401602060405180830381865afa158015610dac573d6000803e3d6000fd5b505050506040513d601f19601f82011682018060405250810190610dd09190613658565b9050816001600160a01b03166392ab89bb6040518163ffffffff1660e01b8152600401600060405180830381600087803b158015610e0d57600080fd5b505af1158015610e21573d6000803e3d6000fd5b50506009546040516370a0823160e01b8152306004820152600093506001600160a01b0390911691506370a0823190602401602060405180830381865afa158015610e70573d6000803e3d6000fd5b505050506040513d601f19601f82011682018060405250810190610e949190613658565b60068054919250600091610eaa90600190613736565b81548110610eba57610eba6136a0565b600091825260209091200154600680546001600160a01b039092169250829187908110610ee957610ee96136a0565b600091825260208083209190910180546001600160a01b0319166001600160a01b0394851617905591831681526005825260408082205482526003909252208590556006805480610f3c57610f3c613749565b60008281526020808220830160001990810180546001600160a01b03191690559092019092558782526004815260408083208390556001600160a01b0387168352600582528083208390558883526003909152812055610f9c8383613736565b60008781526020819052604081208054909190610fba908490613736565b909155505060008681526020819052604081205490036110a3576000868152600160208190526040909120546002805491929091610ff89190613736565b81548110611008576110086136a0565b906000526020600020015460028281548110611026576110266136a0565b906000526020600020018190555080600160006002848154811061104c5761104c6136a0565b9060005260206000200154815260200190815260200160002081905550600280548061107a5761107a613749565b600082815260208082208301600019908101839055909201909255888252600190526040812055505b505050505050565b60006110b561260c565b6009546040516370a0823160e01b81523060048201526000916001600160a01b0316906370a0823190602401602060405180830381865afa1580156110fe573d6000803e3d6000fd5b505050506040513d601f19601f820116820180604052508101906111229190613658565b905060006111308585612647565b6009546040516370a0823160e01b81523060048201529192506000916001600160a01b03909116906370a0823190602401602060405180830381865afa15801561117e573d6000803e3d6000fd5b505050506040513d601f19601f820116820180604052508101906111a29190613658565b90506111ae8382613736565b600e60008282546111bf919061375f565b90915550919695505050505050565b6001600160a01b03166000908152600080516020613af2833981519152602052604090205490565b6000918252600080516020613b32833981519152602090815260408084206001600160a01b0393909316845291905290205460ff1690565b6000600019611241565b60405180910390fd5b600061124c856112af565b905061125a33858388612661565b949350505050565b7f52c63247e1f47db19d5ce0460030c497f067ca4cebf71ba98eeadabe20bace048054606091600080516020613af2833981519152916106b29061361e565b60003361075181858561229a565b600061066d826001612058565b6000806112c883611ac3565b9050808511156112f157828582604051633fa733bb60e21b815260040161123893929190613772565b60006112fc8661075b565b905061130b33868689856126ee565b95945050505050565b600061131e61260c565b336001600160a01b038316146113395761133982338661224d565b600061134483611b49565b90508085111561136d57828582604051632e52afbb60e21b815260040161123893929190613772565b6000611378846127a3565b90506000806002805490506001600160401b0381111561139a5761139a6133b3565b6040519080825280602002602001820160405280156113c3578160200160208202803683370190505b506002549091506000906001600160401b038111156113e4576113e46133b3565b60405190808252806020026020018201604052801561140d578160200160208202803683370190505b50905060005b6002548110156115b457600060028281548110611432576114326136a0565b6000918252602082200154600a546040516378469af760e11b815260036004820152602481018390523060448201529193506001600160a01b03169063f08d35ee90606401602060405180830381865afa158015611494573d6000803e3d6000fd5b505050506040513d601f19601f820116820180604052508101906114b89190613658565b905060006114dc8d836114d7600080516020613b128339815191525490565b612875565b905080156115a657600a546001600160a01b031663f242432a308a611502600388612937565b856040518563ffffffff1660e01b81526004016115229493929190613793565b600060405180830381600087803b15801561153c57600080fd5b505af1158015611550573d6000803e3d6000fd5b5050505061155d83612382565b80868881518110611570576115706136a0565b6020026020010181815250508285888151811061158f5761158f6136a0565b60209081029190910101526115a3876137cb565b96505b505050806001019050611413565b506000836001600160401b038111156115cf576115cf6133b3565b6040519080825280602002602001820160405280156115f8578160200160208202803683370190505b5090506000846001600160401b03811115611615576116156133b3565b60405190808252806020026020018201604052801561163e578160200160208202803683370190505b50905060005b858110156116c35784818151811061165e5761165e6136a0565b6020026020010151838281518110611678576116786136a0565b602002602001018181525050838181518110611696576116966136a0565b60200260200101518282815181106116b0576116b06136a0565b6020908102919091010152600101611644565b506040516348524c4160e01b81526001600160a01b038716906348524c41906116f290849086906004016137e4565b600060405180830381600087803b15801561170c57600080fd5b505af1158015611720573d6000803e3d6000fd5b5050505050505050506000806006805490506001600160401b03811115611749576117496133b3565b604051908082528060200260200182016040528015611772578160200160208202803683370190505b50905060005b6006548110156118b057600060068281548110611797576117976136a0565b60009182526020822001546040516370a0823160e01b81523060048201526001600160a01b03909116925082906370a0823190602401602060405180830381865afa1580156117ea573d6000803e3d6000fd5b505050506040513d601f19601f8201168201806040525081019061180e9190613658565b9050600061182d8c836114d7600080516020613b128339815191525490565b905080156118a2576118496001600160a01b0384168883612983565b6001600160a01b03831660009081526005602052604090205461186b90612382565b8285878151811061187e5761187e6136a0565b6001600160a01b039092166020928302919091019091015261189f866137cb565b95505b505050806001019050611778565b506000826001600160401b038111156118cb576118cb6133b3565b6040519080825280602002602001820160405280156118f4578160200160208202803683370190505b50905060005b8381101561194e57828181518110611914576119146136a0565b602002602001015182828151811061192e5761192e6136a0565b6001600160a01b03909216602092830291909101909101526001016118fa565b50604051630ada65a160e41b81526001600160a01b0385169063ada65a109061197b908490600401613809565b600060405180830381600087803b15801561199557600080fd5b505af11580156119a9573d6000803e3d6000fd5b50506009546040516370a0823160e01b8152306004820152600096506001600160a01b0390911694506370a08231935060240191506119e59050565b602060405180830381865afa158015611a02573d6000803e3d6000fd5b505050506040513d601f19601f82011682018060405250810190611a269190613658565b90506000611a4588836114d7600080516020613b128339815191525490565b600754600854600954929350600092611a6e92859290916001600160a01b0391821691166129e2565b600954909150611a88906001600160a01b03168983612983565b81600e6000828254611a9a9190613736565b90915550611aaa9050878a612a28565b50979650505050505050565b600061066d8260006120ad565b600061066d611ad1836111ce565b6000612058565b6000611ae3816122f9565b6001600160a01b038216611b0a576040516302979eb960e31b815260040160405180910390fd5b50600880546001600160a01b0319166001600160a01b0392909216919091179055565b611b3682610a27565b611b3f816122f9565b610a868383612306565b600061066d826111ce565b611b5c612a62565b6000828152602081905260408120549003611bb657600280546000848152600160208190526040822083905582018355919091527f405787fa12a823e0f2b7631cc41b3ba8828b3321ca811111fa75cd3aa3bb5ace018290555b600954600a5460405163095ea7b360e01b81526001600160a01b0391821660048201526024810184905291169063095ea7b3906044016020604051808303816000875af1158015611c0b573d6000803e3d6000fd5b505050506040513d601f19601f82011682018060405250810190611c2f9190613714565b506009546040516370a0823160e01b81523060048201526000916001600160a01b0316906370a0823190602401602060405180830381865afa158015611c79573d6000803e3d6000fd5b505050506040513d601f19601f82011682018060405250810190611c9d9190613658565b600a54604051630b2cc45160e21b81526003600482015260248101869052604481018590529192506001600160a01b031690632cb31144906064016020604051808303816000875af1158015611cf7573d6000803e3d6000fd5b505050506040513d601f19601f82011682018060405250810190611d1b9190613658565b506009546040516370a0823160e01b81523060048201526000916001600160a01b0316906370a0823190602401602060405180830381865afa158015611d65573d6000803e3d6000fd5b505050506040513d601f19601f82011682018060405250810190611d899190613658565b9050611d958183613736565b60008581526020819052604081208054909190611db390849061375f565b909155505050505050565b6001600160a01b0391821660009081527f52c63247e1f47db19d5ce0460030c497f067ca4cebf71ba98eeadabe20bace016020908152604080832093909416825291909152205490565b600080611e13612a62565b60008481526004602052604090205415611e4057604051633d360b6160e01b815260040160405180910390fd5b600d54600090611e58906001600160a01b0316612aab565b600a549091506001600160a01b031663f242432a3083611e7960038a612937565b886040518563ffffffff1660e01b8152600401611e999493929190613793565b600060405180830381600087803b158015611eb357600080fd5b505af1158015611ec7573d6000803e3d6000fd5b5050600a5460095460405163eb990c5960e01b81526001600160a01b03928316600482015290821660248201526044810189905260648101889052908416925063eb990c599150608401600060405180830381600087803b158015611f2b57600080fd5b505af1158015611f3f573d6000803e3d6000fd5b5050600680546000898152600360209081526040808320849055600184019094557ff652222313e28459528d920b65115c16c04f3efc82aaedc97be59f3f377c0d3f90920180546001600160a01b0319166001600160a01b038816908117909155808252600583528382208b9055835163165be58560e11b815293519195509350632cb7cb0a926004808201939291829003018187875af1158015611fe8573d6000803e3d6000fd5b505050506040513d601f19601f8201168201806040525081019061200c9190613856565b6000968752600460205260409096206001600160401b039096169586905550939492505050565b60006001600160e01b03198216630271189760e51b148061066d575061066d82612b1d565b60006107f9612066600e5490565b61207190600161375f565b61207d6000600a613963565b600080516020613b1283398151915254612097919061375f565b85919085612b52565b610af18383836001612b96565b60006107f96120bd82600a613963565b600080516020613b12833981519152546120d7919061375f565b600e5461209790600161375f565b6120ed612c75565b600080516020613af28339815191527f52c63247e1f47db19d5ce0460030c497f067ca4cebf71ba98eeadabe20bace0361212784826139ba565b5060048101610a8683826139ba565b61213e612c75565b600080516020613b5283398151915260008061215984612cbe565b915091508161216957601261216b565b805b83546001600160a81b031916600160a01b60ff92909216919091026001600160a01b031916176001600160a01b0394909416939093179091555050565b6000600080516020613b328339815191526121c384846111f6565b612243576000848152602082815260408083206001600160a01b03871684529091529020805460ff191660011790556121f93390565b6001600160a01b0316836001600160a01b0316857f2f8788117e7eff1d82e926ec794901d17c78024a50270940304540a733656f0d60405160405180910390a4600191505061066d565b600091505061066d565b60006122598484611dbe565b90506000198114610a86578181101561228b57828183604051637dc7a0d960e11b815260040161123893929190613772565b610a8684848484036000612b96565b6001600160a01b0383166122c457604051634b637e8f60e11b815260006004820152602401611238565b6001600160a01b0382166122ee5760405163ec442f0560e01b815260006004820152602401611238565b610af1838383612d9a565b6123038133612ec5565b50565b6000600080516020613b3283398151915261232184846111f6565b15612243576000848152602082815260408083206001600160a01b0387168085529252808320805460ff1916905551339287917ff6391f5c32d9c69d2a47ea670b442974b53935d1edc7fd64eb21e047a839171b9190a4600191505061066d565b600061238f600383612937565b90506000610100198216600a54604051627eeac760e11b8152306004820152602481018590529192506000916001600160a01b03909116906364a0f901908590839062fdd58e90604401602060405180830381865afa1580156123f6573d6000803e3d6000fd5b505050506040513d601f19601f8201168201806040525081019061241a9190613658565b6040516001600160e01b031960e085901b16815260048101929092526024820152604401602060405180830381865afa15801561245b573d6000803e3d6000fd5b505050506040513d601f19601f8201168201806040525081019061247f9190613658565b600085815260046020526040902054909150156125b657600a54600085815260036020526040902054600680546001600160a01b039093169263115a90ee9286929181106124cf576124cf6136a0565b6000918252602090912001546040516370a0823160e01b81523060048201526001600160a01b03909116906370a0823190602401602060405180830381865afa158015612520573d6000803e3d6000fd5b505050506040513d601f19601f820116820180604052508101906125449190613658565b6040516001600160e01b031960e085901b16815260048101929092526024820152604401602060405180830381865afa158015612585573d6000803e3d6000fd5b505050506040513d601f19601f820116820180604052508101906125a99190613658565b6125b3908261375f565b90505b6000848152602081905260409020548114610a8657600084815260208190526040902054600e5482916125e891613736565b6125f2919061375f565b600e55600084815260208190526040902081905550505050565b60005b6002548110156123035761263f6002828154811061262f5761262f6136a0565b9060005260206000200154612382565b60010161260f565b6000600019600061265785611ab6565b905061125a338587845b600080516020613b528339815191528054612687906001600160a01b0316863086612efe565b6126918483612f37565b836001600160a01b0316856001600160a01b03167fdcbc1c05240f31ff3ad067ef1ee35ce4997762752e3a095284754544f4c709d785856040516126df929190918252602082015260400190565b60405180910390a35050505050565b600080516020613b528339815191526001600160a01b038681169085161461271b5761271b84878461224d565b6127258483612a28565b805461273b906001600160a01b03168685612983565b836001600160a01b0316856001600160a01b0316876001600160a01b03167ffbde797d201c681b91056529119e0b02407c7bb96a4a2c75c01fc9667232c8db8686604051612793929190918252602082015260400190565b60405180910390a4505050505050565b6000806127af83610af6565b9050806001600160a01b03163b60000361066d57604080516001600160a01b038516602080830191909152825180830382018152918301909252805191012061280490600c546001600160a01b031690612f6d565b50600a5460095460405163485cc95560e01b81526001600160a01b03928316600482015290821660248201529082169063485cc95590604401600060405180830381600087803b15801561285757600080fd5b505af115801561286b573d6000803e3d6000fd5b5050505092915050565b60008383028160001985870982811083820303915050806000036128ac578382816128a2576128a2613a79565b04925050506107f9565b8084116128ca576128ca84156128c3576011612fdb565b6012612fdb565b6000848688096000868103871696879004966002600389028118808a02820302808a02820302808a02820302808a02820302808a02820302808a02909103029181900381900460010186841190950394909402919094039290920491909117919091029150509392505050565b6040805160f884901b6001600160f81b031916602080830191909152602180830194909452825180830390940184526041909101909152815191012060091b60ff909116176101001790565b6040516001600160a01b03838116602483015260448201839052610af191859182169063a9059cbb906064015b604051602081830303815290604052915060e01b6020820180516001600160e01b038381831617835250505050612ff0565b6000808415612a14576129f88686612710612875565b90508015612a1457612a146001600160a01b0384168583612983565b612a1e8187613736565b9695505050505050565b6001600160a01b038216612a5257604051634b637e8f60e11b815260006004820152602401611238565b612a5e82600083612d9a565b5050565b612a8c7f97667070c54ef182b0f5858b034beac1b6f3089aa2d3188bb1e8929f4fa9b929336111f6565b612aa957604051631f0853c160e21b815260040160405180910390fd5b565b6000763d602d80600a3d3981f3363d3d373d3d3d363d730000008260601b60e81c176000526e5af43d82803e903d91602b57fd5bf38260781b17602052603760096000f090506001600160a01b038116612b18576040516330be1a3d60e21b815260040160405180910390fd5b919050565b60006001600160e01b03198216637965db0b60e01b148061066d57506301ffc9a760e01b6001600160e01b031983161461066d565b6000612b81612b6083613053565b8015612b7c575060008480612b7757612b77613a79565b868809115b151590565b612b8c868686612875565b61130b919061375f565b600080516020613af28339815191526001600160a01b038516612bcf5760405163e602df0560e01b815260006004820152602401611238565b6001600160a01b038416612bf957604051634a1406b160e11b815260006004820152602401611238565b6001600160a01b03808616600090815260018301602090815260408083209388168352929052208390558115612c6e57836001600160a01b0316856001600160a01b03167f8c5be1e5ebec7d5bd14f71427d1e84f3dd0314c0f7b2291e5b200ac8c7c3b925856040516126df91815260200190565b5050505050565b7ff0c57e16840df040f15088dc2f81fe391c3923bec73e23a9662efc9c229c6a0054600160401b900460ff16612aa957604051631afcd79f60e31b815260040160405180910390fd5b60408051600481526024810182526020810180516001600160e01b031663313ce56760e01b17905290516000918291829182916001600160a01b03871691612d0591613a8f565b600060405180830381855afa9150503d8060008114612d40576040519150601f19603f3d011682016040523d82523d6000602084013e612d45565b606091505b5091509150818015612d5957506020815110155b15612d8d57600081806020019051810190612d749190613658565b905060ff8111612d8b576001969095509350505050565b505b5060009485945092505050565b600080516020613af28339815191526001600160a01b038416612dd65781816002016000828254612dcb919061375f565b90915550612e359050565b6001600160a01b03841660009081526020829052604090205482811015612e165784818460405163391434e360e21b815260040161123893929190613772565b6001600160a01b03851660009081526020839052604090209083900390555b6001600160a01b038316612e53576002810180548390039055612e72565b6001600160a01b03831660009081526020829052604090208054830190555b826001600160a01b0316846001600160a01b03167fddf252ad1be2c89b69c2b068fc378daa952ba7f163c4a11628f55a4df523b3ef84604051612eb791815260200190565b60405180910390a350505050565b612ecf82826111f6565b612a5e5760405163e2517d3f60e01b81526001600160a01b038216600482015260248101839052604401611238565b6040516001600160a01b038481166024830152838116604483015260648201839052610a869186918216906323b872dd906084016129b0565b6001600160a01b038216612f615760405163ec442f0560e01b815260006004820152602401611238565b612a5e60008383612d9a565b6000763d602d80600a3d3981f3363d3d373d3d3d363d730000008360601b60e81c176000526e5af43d82803e903d91602b57fd5bf38360781b1760205281603760096000f590506001600160a01b03811661066d576040516330be1a3d60e21b815260040160405180910390fd5b634e487b7160e01b6000528060045260246000fd5b60006130056001600160a01b03841683613080565b9050805160001415801561302a5750808060200190518101906130289190613714565b155b15610af157604051635274afe760e01b81526001600160a01b0384166004820152602401611238565b6000600282600381111561306957613069613aab565b6130739190613ac1565b60ff166001149050919050565b60606107f98383600084600080856001600160a01b031684866040516130a69190613a8f565b60006040518083038185875af1925050503d80600081146130e3576040519150601f19603f3d011682016040523d82523d6000602084013e6130e8565b606091505b5091509150612a1e868383606082613108576131038261314f565b6107f9565b815115801561311f57506001600160a01b0384163b155b1561314857604051639996b31560e01b81526001600160a01b0385166004820152602401611238565b50806107f9565b80511561315f5780518082602001fd5b604051630a12f52160e11b815260040160405180910390fd5b60006020828403121561318a57600080fd5b81356001600160e01b0319811681146107f957600080fd5b60005b838110156131bd5781810151838201526020016131a5565b50506000910152565b60208152600082518060208401526131e58160408501602087016131a2565b601f01601f19169190910160400192915050565b60006020828403121561320b57600080fd5b5035919050565b80356001600160a01b0381168114612b1857600080fd5b6000806040838503121561323c57600080fd5b61324583613212565b946020939093013593505050565b60006020828403121561326557600080fd5b6107f982613212565b600080600080600080600060e0888a03121561328957600080fd5b61329288613212565b96506132a060208901613212565b95506132ae60408901613212565b94506132bc60608901613212565b9350608088013592506132d160a08901613212565b91506132df60c08901613212565b905092959891949750929550565b60008060006060848603121561330257600080fd5b61330b84613212565b925061331960208501613212565b9150604084013590509250925092565b6000806040838503121561333c57600080fd5b8235915061334c60208401613212565b90509250929050565b6000806040838503121561336857600080fd5b50508035926020909101359150565b60008060006060848603121561338c57600080fd5b8335925061339c60208501613212565b91506133aa60408501613212565b90509250925092565b634e487b7160e01b600052604160045260246000fd5b604051601f8201601f191681016001600160401b03811182821017156133f1576133f16133b3565b604052919050565b600082601f83011261340a57600080fd5b813560206001600160401b03821115613425576134256133b3565b8160051b6134348282016133c9565b928352848101820192828101908785111561344e57600080fd5b83870192505b8483101561346d57823582529183019190830190613454565b979650505050505050565b600082601f83011261348957600080fd5b81356001600160401b038111156134a2576134a26133b3565b6134b5601f8201601f19166020016133c9565b8181528460208386010111156134ca57600080fd5b816020850160208301376000918101602001919091529392505050565b600080600080600060a086880312156134ff57600080fd5b61350886613212565b945061351660208701613212565b935060408601356001600160401b038082111561353257600080fd5b61353e89838a016133f9565b9450606088013591508082111561355457600080fd5b61356089838a016133f9565b9350608088013591508082111561357657600080fd5b5061358388828901613478565b9150509295509295909350565b600080604083850312156135a357600080fd5b6135ac83613212565b915061334c60208401613212565b600080600080600060a086880312156135d257600080fd5b6135db86613212565b94506135e960208701613212565b9350604086013592506060860135915060808601356001600160401b0381111561361257600080fd5b61358388828901613478565b600181811c9082168061363257607f821691505b60208210810361365257634e487b7160e01b600052602260045260246000fd5b50919050565b60006020828403121561366a57600080fd5b5051919050565b634e487b7160e01b600052601160045260246000fd5b60ff818116838216019081111561066d5761066d613671565b634e487b7160e01b600052603260045260246000fd5b60008151808452602080850194506020840160005b838110156136e7578151875295820195908201906001016136cb565b509495945050505050565b60ff8416815282602082015260606040820152600061130b60608301846136b6565b60006020828403121561372657600080fd5b815180151581146107f957600080fd5b8181038181111561066d5761066d613671565b634e487b7160e01b600052603160045260246000fd5b8082018082111561066d5761066d613671565b6001600160a01b039390931683526020830191909152604082015260600190565b6001600160a01b0394851681529290931660208301526040820152606081019190915260a06080820181905260009082015260c00190565b6000600182016137dd576137dd613671565b5060010190565b6040815260006137f760408301856136b6565b828103602084015261130b81856136b6565b6020808252825182820181905260009190848201906040850190845b8181101561384a5783516001600160a01b031683529284019291840191600101613825565b50909695505050505050565b60006020828403121561386857600080fd5b81516001600160401b03811681146107f957600080fd5b600181815b808511156138ba5781600019048211156138a0576138a0613671565b808516156138ad57918102915b93841c9390800290613884565b509250929050565b6000826138d15750600161066d565b816138de5750600061066d565b81600181146138f457600281146138fe5761391a565b600191505061066d565b60ff84111561390f5761390f613671565b50506001821b61066d565b5060208310610133831016604e8410600b841016171561393d575081810a61066d565b613947838361387f565b806000190482111561395b5761395b613671565b029392505050565b60006107f960ff8416836138c2565b601f821115610af1576000816000526020600020601f850160051c8101602086101561399b5750805b601f850160051c820191505b818110156110a3578281556001016139a7565b81516001600160401b038111156139d3576139d36133b3565b6139e7816139e1845461361e565b84613972565b602080601f831160018114613a1c5760008415613a045750858301515b600019600386901b1c1916600185901b1785556110a3565b600085815260208120601f198616915b82811015613a4b57888601518255948401946001909101908401613a2c565b5085821015613a695787850151600019600388901b60f8161c191681555b5050505050600190811b01905550565b634e487b7160e01b600052601260045260246000fd5b60008251613aa18184602087016131a2565b9190910192915050565b634e487b7160e01b600052602160045260246000fd5b600060ff831680613ae257634e487b7160e01b600052601260045260246000fd5b8060ff8416069150509291505056fe52c63247e1f47db19d5ce0460030c497f067ca4cebf71ba98eeadabe20bace0052c63247e1f47db19d5ce0460030c497f067ca4cebf71ba98eeadabe20bace0202dd7bc7dec4dceedda775e58dd541e08a116c6c53815c0bd028192f7b6268000773e532dfede91f04b12a73d3d2acd361424f41f76b4fb79f090161e36b4e00a264697066735822122045f127568663393f895155a8fa3c9650155b641aa305e145c631f60359239cd564736f6c63430008170033","linkReferences":{}},"methodIdentifiers":{"DEFAULT_ADMIN_ROLE()":"a217fddf","OPERATOR_ROLE()":"f5b541a6","allowance(address,address)":"dd62ed3e","approve(address,uint256)":"095ea7b3","asset()":"38d52e0f","balanceOf(address)":"70a08231","claimRedeem(address)":"0c5cb572","claimRewards(uint256,uint256)":"594dd432","convertToAssets(uint256)":"07a2d13a","convertToShares(uint256)":"c6e6f592","decimals()":"313ce567","delegate(uint256,uint256)":"d9a34952","deposit(uint256,address)":"6e553f65","feeInBasisPoints()":"b45edf47","feeTreasury()":"60dc2340","getRedemptionReceiver(address)":"3c8edb20","getRoleAdmin(bytes32)":"248a9ca3","grantRole(bytes32,address)":"2f2ff15d","hasRole(bytes32,address)":"91d14854","initialize(address,address,address,address,uint256,address,address)":"0eaf43f2","initiateUndelegate(uint256,uint256)":"fbbda413","maxDeposit(address)":"402d267d","maxMint(address)":"c63d75b6","maxRedeem(address)":"d905777e","maxWithdraw(address)":"ce96cb77","mint(uint256,address)":"94bf804d","name()":"06fdde03","onERC1155BatchReceived(address,address,uint256[],uint256[],bytes)":"bc197c81","onERC1155Received(address,address,uint256,uint256,bytes)":"f23a6e61","previewDeposit(uint256)":"ef8b30f7","previewMint(uint256)":"b3d7f6b9","previewRedeem(uint256)":"4cdad506","previewWithdraw(uint256)":"0a28a477","redeem(uint256,address,address)":"ba087652","renounceRole(bytes32,address)":"36568abe","revokeRole(bytes32,address)":"d547741f","subjects(uint256)":"2c7424af","supportsInterface(bytes4)":"01ffc9a7","symbol()":"95d89b41","totalAssets()":"01e1d114","totalSupply()":"18160ddd","transfer(address,uint256)":"a9059cbb","transferFrom(address,address,uint256)":"23b872dd","undelegate(uint256)":"6c68c0e1","updateFeeBasisPoints(uint256)":"57802c7d","updateFeeTreasury(address)":"d4a0d4c6","withdraw(uint256,address,address)":"b460af94"},"storageLayout":{"storage":[{"astId":57544,"contract":"src/FortaStakingVault.sol:FortaStakingVault","label":"_assetsPerSubject","offset":0,"slot":"0","type":"t_mapping(t_uint256,t_uint256)"},{"astId":57548,"contract":"src/FortaStakingVault.sol:FortaStakingVault","label":"_subjectIndex","offset":0,"slot":"1","type":"t_mapping(t_uint256,t_uint256)"},{"astId":57551,"contract":"src/FortaStakingVault.sol:FortaStakingVault","label":"subjects","offset":0,"slot":"2","type":"t_array(t_uint256)dyn_storage"},{"astId":57555,"contract":"src/FortaStakingVault.sol:FortaStakingVault","label":"_subjectInactiveSharesDistributorIndex","offset":0,"slot":"3","type":"t_mapping(t_uint256,t_uint256)"},{"astId":57559,"contract":"src/FortaStakingVault.sol:FortaStakingVault","label":"_subjectDeadline","offset":0,"slot":"4","type":"t_mapping(t_uint256,t_uint256)"},{"astId":57563,"contract":"src/FortaStakingVault.sol:FortaStakingVault","label":"_distributorSubject","offset":0,"slot":"5","type":"t_mapping(t_address,t_uint256)"},{"astId":57566,"contract":"src/FortaStakingVault.sol:FortaStakingVault","label":"_inactiveSharesDistributors","offset":0,"slot":"6","type":"t_array(t_address)dyn_storage"},{"astId":57568,"contract":"src/FortaStakingVault.sol:FortaStakingVault","label":"feeInBasisPoints","offset":0,"slot":"7","type":"t_uint256"},{"astId":57570,"contract":"src/FortaStakingVault.sol:FortaStakingVault","label":"feeTreasury","offset":0,"slot":"8","type":"t_address"},{"astId":57573,"contract":"src/FortaStakingVault.sol:FortaStakingVault","label":"_token","offset":0,"slot":"9","type":"t_contract(IERC20)48889"},{"astId":57576,"contract":"src/FortaStakingVault.sol:FortaStakingVault","label":"_staking","offset":0,"slot":"10","type":"t_contract(IFortaStaking)60139"},{"astId":57579,"contract":"src/FortaStakingVault.sol:FortaStakingVault","label":"_rewardsDistributor","offset":0,"slot":"11","type":"t_contract(IRewardsDistributor)60152"},{"astId":57581,"contract":"src/FortaStakingVault.sol:FortaStakingVault","label":"_receiverImplementation","offset":0,"slot":"12","type":"t_address"},{"astId":57583,"contract":"src/FortaStakingVault.sol:FortaStakingVault","label":"_distributorImplementation","offset":0,"slot":"13","type":"t_address"},{"astId":57585,"contract":"src/FortaStakingVault.sol:FortaStakingVault","label":"_totalAssets","offset":0,"slot":"14","type":"t_uint256"}],"types":{"t_address":{"encoding":"inplace","label":"address","numberOfBytes":"20"},"t_array(t_address)dyn_storage":{"encoding":"dynamic_array","label":"address[]","numberOfBytes":"32","base":"t_address"},"t_array(t_uint256)dyn_storage":{"encoding":"dynamic_array","label":"uint256[]","numberOfBytes":"32","base":"t_uint256"},"t_contract(IERC20)48889":{"encoding":"inplace","label":"contract IERC20","numberOfBytes":"20"},"t_contract(IFortaStaking)60139":{"encoding":"inplace","label":"contract IFortaStaking","numberOfBytes":"20"},"t_contract(IRewardsDistributor)60152":{"encoding":"inplace","label":"contract IRewardsDistributor","numberOfBytes":"20"},"t_mapping(t_address,t_uint256)":{"encoding":"mapping","key":"t_address","label":"mapping(address => uint256)","numberOfBytes":"32","value":"t_uint256"},"t_mapping(t_uint256,t_uint256)":{"encoding":"mapping","key":"t_uint256","label":"mapping(uint256 => uint256)","numberOfBytes":"32","value":"t_uint256"},"t_uint256":{"encoding":"inplace","label":"uint256","numberOfBytes":"32"}}},"id":66}